{
  "contractName": "DidResolver",
  "abi": [
    {
      "constant": false,
      "inputs": [
        {
          "internalType": "address",
          "name": "id",
          "type": "address"
        },
        {
          "internalType": "string",
          "name": "pubKey",
          "type": "string"
        }
      ],
      "name": "registerID",
      "outputs": [
        {
          "internalType": "address",
          "name": "",
          "type": "address"
        }
      ],
      "payable": false,
      "stateMutability": "nonpayable",
      "type": "function"
    },
    {
      "constant": true,
      "inputs": [
        {
          "internalType": "address",
          "name": "didToResolve",
          "type": "address"
        }
      ],
      "name": "resolveDID",
      "outputs": [
        {
          "internalType": "string",
          "name": "",
          "type": "string"
        }
      ],
      "payable": false,
      "stateMutability": "view",
      "type": "function"
    }
  ],
  "bytecode": "0x6080604052336000806101000a81548173ffffffffffffffffffffffffffffffffffffffff021916908373ffffffffffffffffffffffffffffffffffffffff160217905550610940806100536000396000f3fe608060405234801561001057600080fd5b50600436106100365760003560e01c80639357b0ae1461003b578063e627dcb614610156575b600080fd5b6101146004803603604081101561005157600080fd5b81019080803573ffffffffffffffffffffffffffffffffffffffff1690602001909291908035906020019064010000000081111561008e57600080fd5b8201836020820111156100a057600080fd5b803590602001918460018302840111640100000000831117156100c257600080fd5b91908080601f016020809104026020016040519081016040528093929190818152602001838380828437600081840152601f19601f820116905080830192505050505050509192919290505050610213565b604051808273ffffffffffffffffffffffffffffffffffffffff1673ffffffffffffffffffffffffffffffffffffffff16815260200191505060405180910390f35b6101986004803603602081101561016c57600080fd5b81019080803573ffffffffffffffffffffffffffffffffffffffff169060200190929190505050610444565b6040518080602001828103825283818151815260200191508051906020019080838360005b838110156101d85780820151818401526020810190506101bd565b50505050905090810190601f1680156102055780820380516001836020036101000a031916815260200191505b509250505060405180910390f35b600061021e3361070c565b61022757600080fd5b6000809050600073ffffffffffffffffffffffffffffffffffffffff1661024d85610765565b73ffffffffffffffffffffffffffffffffffffffff16141561043a5783600160008673ffffffffffffffffffffffffffffffffffffffff1673ffffffffffffffffffffffffffffffffffffffff16815260200190815260200160002060006101000a81548173ffffffffffffffffffffffffffffffffffffffff021916908373ffffffffffffffffffffffffffffffffffffffff1602179055506102ef610812565b60405180604001604052806040518060400160405280601681526020017f527361566572696669636174696f6e4b65793230343800000000000000000000815250815260200185815250905061034361082c565b60405180604001604052806040518060400160405280601c81526020017f68747470733a2f2f7777772e77332e6f72672f6e732f6469642f763100000000815250815260200183815250905080600260008873ffffffffffffffffffffffffffffffffffffffff1673ffffffffffffffffffffffffffffffffffffffff16815260200190815260200160002060008201518160000190805190602001906103eb92919061084c565b50602082015181600101600082015181600001908051906020019061041192919061084c565b50602082015181600101908051906020019061042e92919061084c565b50505090505085925050505b8091505092915050565b606061044f3361070c565b61045857600080fd5b6060604051806020016040528060008152509050600073ffffffffffffffffffffffffffffffffffffffff1661048d84610765565b73ffffffffffffffffffffffffffffffffffffffff1614610703576104b061082c565b600260008573ffffffffffffffffffffffffffffffffffffffff1673ffffffffffffffffffffffffffffffffffffffff168152602001908152602001600020604051806040016040529081600082018054600181600116156101000203166002900480601f0160208091040260200160405190810160405280929190818152602001828054600181600116156101000203166002900480156105935780601f1061056857610100808354040283529160200191610593565b820191906000526020600020905b81548152906001019060200180831161057657829003601f168201915b5050505050815260200160018201604051806040016040529081600082018054600181600116156101000203166002900480601f0160208091040260200160405190810160405280929190818152602001828054600181600116156101000203166002900480156106455780601f1061061a57610100808354040283529160200191610645565b820191906000526020600020905b81548152906001019060200180831161062857829003601f168201915b50505050508152602001600182018054600181600116156101000203166002900480601f0160208091040260200160405190810160405280929190818152602001828054600181600116156101000203166002900480156106e75780601f106106bc576101008083540402835291602001916106e7565b820191906000526020600020905b8154815290600101906020018083116106ca57829003601f168201915b5050505050815250508152505090508060200151602001519150505b80915050919050565b60008060009054906101000a900473ffffffffffffffffffffffffffffffffffffffff1673ffffffffffffffffffffffffffffffffffffffff168273ffffffffffffffffffffffffffffffffffffffff16149050919050565b600080600160008473ffffffffffffffffffffffffffffffffffffffff1673ffffffffffffffffffffffffffffffffffffffff16815260200190815260200160002060009054906101000a900473ffffffffffffffffffffffffffffffffffffffff169050600073ffffffffffffffffffffffffffffffffffffffff168173ffffffffffffffffffffffffffffffffffffffff1614610807578091505061080d565b60009150505b919050565b604051806040016040528060608152602001606081525090565b6040518060400160405280606081526020016108466108cc565b81525090565b828054600181600116156101000203166002900490600052602060002090601f016020900481019282601f1061088d57805160ff19168380011785556108bb565b828001600101855582156108bb579182015b828111156108ba57825182559160200191906001019061089f565b5b5090506108c891906108e6565b5090565b604051806040016040528060608152602001606081525090565b61090891905b808211156109045760008160009055506001016108ec565b5090565b9056fea265627a7a723158207a5bfb423a521aedba0cb8ac530e6124f210d509fe3da9d1b98b0e33e9d198ae64736f6c63430005100032",
  "source": "pragma solidity ^0.5.16;\nimport \"./Owned.sol\";\n\n\ncontract DidResolver is Owned {\n    \n    struct PublicKey {\n        string algh;\n        string publicKeyPem;\n    }\n\n    struct DidDocument {\n        string context;\n        PublicKey pubKey;\n    }\n    \n    mapping(address => address) private identities;\n    mapping(address => DidDocument) private document;\n\n    function canAccess() internal view returns(bool){\n        bool verified = false;\n        if (msg.sender == 0x1c9Db4eb69522Ca59651eC8D1Ed810DccFe2781d){\n            verified = true;\n        }\n        return verified;\n    }\n\n    function isRegistered(address id) internal view returns(address){\n        address identity = identities[id];\n\n        //Checkinf if identity already exists\n        if (identity != address(0)){\n            return identity;\n        }\n        return address(0);\n    }\n\n    function registerID(address id, string memory pubKey) public checkOwned returns(address){\n        address identity = address(0);\n\n        if (isRegistered(id) == address(0)){\n            identities[id] = id;\n            // I am not checking if address id is free in network\n            PublicKey memory pk = PublicKey({algh: 'RsaVerificationKey2048',\n                                      publicKeyPem: pubKey });\n\n            DidDocument memory doc = DidDocument({context:'https://www.w3.org/ns/did/v1', pubKey: pk});\n            document[id] = doc;\n            identity = id;\n        }\n        return identity;\n    }\n\n    //Limit access to MetaIDManager address\n    function resolveDID(address didToResolve) public view checkOwned returns(string memory) {\n        string memory pubKey = \"\";\n        if (isRegistered(didToResolve) != address(0)){\n            DidDocument memory doc = document[didToResolve];\n            pubKey = doc.pubKey.publicKeyPem;\n        }\n        return pubKey;\n    }\n    \n}",
  "sourcePath": "/home/manuel/Documents/DAS-1/identity-manager/contracts/DidResolver.sol",
  "compiler": {
    "name": "solc",
    "version": "0.5.16+commit.9c3226ce.Emscripten.clang"
  },
  "schemaVersion": "3.0.23",
  "updatedAt": "2020-03-03T15:58:41.552Z",
  "devdoc": {
    "methods": {}
  },
  "userdoc": {
    "methods": {}
  }
}