{
  "contractName": "IdentityProxy",
  "abi": [
    {
      "anonymous": false,
      "inputs": [
        {
          "indexed": true,
          "internalType": "address",
          "name": "dest",
          "type": "address"
        },
        {
          "indexed": false,
          "internalType": "uint256",
          "name": "value",
          "type": "uint256"
        },
        {
          "indexed": false,
          "internalType": "bytes",
          "name": "data",
          "type": "bytes"
        }
      ],
      "name": "ExternalOperation",
      "type": "event"
    },
    {
      "anonymous": false,
      "inputs": [
        {
          "indexed": true,
          "internalType": "address",
          "name": "sender",
          "type": "address"
        },
        {
          "indexed": false,
          "internalType": "uint256",
          "name": "value",
          "type": "uint256"
        }
      ],
      "name": "Paid",
      "type": "event"
    },
    {
      "payable": true,
      "stateMutability": "payable",
      "type": "fallback"
    },
    {
      "constant": false,
      "inputs": [
        {
          "internalType": "address",
          "name": "dest",
          "type": "address"
        },
        {
          "internalType": "uint256",
          "name": "value",
          "type": "uint256"
        },
        {
          "internalType": "bytes",
          "name": "data",
          "type": "bytes"
        }
      ],
      "name": "forward",
      "outputs": [],
      "payable": false,
      "stateMutability": "nonpayable",
      "type": "function"
    },
    {
      "constant": false,
      "inputs": [],
      "name": "selfDestroy",
      "outputs": [],
      "payable": false,
      "stateMutability": "nonpayable",
      "type": "function"
    }
  ],
  "bytecode": "0x6080604052336000806101000a81548173ffffffffffffffffffffffffffffffffffffffff021916908373ffffffffffffffffffffffffffffffffffffffff160217905550610339806100536000396000f3fe6080604052600436106100295760003560e01c8063b9750acf14610079578063d7f31eb914610090575b3373ffffffffffffffffffffffffffffffffffffffff167f737c69225d647e5994eab1a6c301bf6d9232beb2759ae1e27a8966b4732bc489346040518082815260200191505060405180910390a2005b34801561008557600080fd5b5061008e610182565b005b34801561009c57600080fd5b50610180600480360360608110156100b357600080fd5b81019080803573ffffffffffffffffffffffffffffffffffffffff16906020019092919080359060200190929190803590602001906401000000008111156100fa57600080fd5b82018360208201111561010c57600080fd5b8035906020019184600183028401116401000000008311171561012e57600080fd5b91908080601f016020809104026020016040519081016040528093929190818152602001838380828437600081840152601f19601f8201169050808301925050505050505091929192905050506101ad565b005b61018b33610293565b61019457600080fd5b3373ffffffffffffffffffffffffffffffffffffffff16ff5b6101b633610293565b6101bf57600080fd5b6101ca8383836102ec565b6101d357600080fd5b8273ffffffffffffffffffffffffffffffffffffffff167f814d5de04cbc8e9ec4afbdbc8c378599dfcc94c4465668fd1065508e66d3048283836040518083815260200180602001828103825283818151815260200191508051906020019080838360005b83811015610253578082015181840152602081019050610238565b50505050905090810190601f1680156102805780820380516001836020036101000a031916815260200191505b50935050505060405180910390a2505050565b60008060009054906101000a900473ffffffffffffffffffffffffffffffffffffffff1673ffffffffffffffffffffffffffffffffffffffff168273ffffffffffffffffffffffffffffffffffffffff16149050919050565b600080600083516020850186885af19050939250505056fea265627a7a72315820aefa38ae48a1e9f2f1800a9d3a015a0ce341c71c9264dff8f65446aa3fd9be3964736f6c63430005100032",
  "source": "pragma solidity ^0.5.16;\nimport \"./Owned.sol\";\n\ncontract IdentityProxy is Owned {\n    event ExternalOperation(\n        address indexed dest,\n        uint value,\n        bytes data\n    );\n\n    event Paid(\n        address indexed sender,\n        uint value\n    );\n\n    function () external payable {\n        emit Paid(msg.sender, msg.value);\n    }\n\n    function forward(address dest, uint value, bytes memory data) public checkOwned {\n        require(execute(dest, value, data));\n        emit ExternalOperation(dest, value, data);\n    }\n\n    function execute(address dest, uint value, bytes memory data) internal returns(bool success) {\n        assembly {\n            success := call(gas, dest, value, add(data, 0x20), mload(data), 0, 0)\n        }\n    }\n\n    function selfDestroy() public checkOwned {\n        selfdestruct(msg.sender);\n    }\n}",
  "sourcePath": "/home/manuel/Documents/DAS-1/identity-manager/contracts/IdentityProxy.sol",
  "compiler": {
    "name": "solc",
    "version": "0.5.16+commit.9c3226ce.Emscripten.clang"
  },
  "schemaVersion": "3.0.23",
  "updatedAt": "2020-03-12T09:10:33.021Z",
  "devdoc": {
    "methods": {}
  },
  "userdoc": {
    "methods": {}
  }
}