{
  "contractName": "IdentityController",
  "abi": [
    {
      "anonymous": false,
      "inputs": [
        {
          "indexed": true,
          "internalType": "address",
          "name": "creator",
          "type": "address"
        },
        {
          "indexed": false,
          "internalType": "address",
          "name": "owner",
          "type": "address"
        }
      ],
      "name": "IdentityCreated",
      "type": "event"
    },
    {
      "constant": false,
      "inputs": [
        {
          "internalType": "address",
          "name": "owner",
          "type": "address"
        },
        {
          "internalType": "string",
          "name": "pubKey",
          "type": "string"
        }
      ],
      "name": "createIdentity",
      "outputs": [
        {
          "internalType": "address",
          "name": "",
          "type": "address"
        }
      ],
      "payable": false,
      "stateMutability": "nonpayable",
      "type": "function"
    },
    {
      "constant": false,
      "inputs": [
        {
          "internalType": "address",
          "name": "owner",
          "type": "address"
        },
        {
          "internalType": "address",
          "name": "destinationContract",
          "type": "address"
        },
        {
          "internalType": "uint256",
          "name": "value",
          "type": "uint256"
        },
        {
          "internalType": "bytes",
          "name": "data",
          "type": "bytes"
        }
      ],
      "name": "externalTransaction",
      "outputs": [
        {
          "internalType": "bool",
          "name": "",
          "type": "bool"
        }
      ],
      "payable": false,
      "stateMutability": "nonpayable",
      "type": "function"
    }
  ],
  "bytecode": "0x60806040526040516100109061007e565b604051809103906000f08015801561002c573d6000803e3d6000fd5b506000806101000a81548173ffffffffffffffffffffffffffffffffffffffff021916908373ffffffffffffffffffffffffffffffffffffffff16021790555034801561007857600080fd5b5061008b565b61099380610b8e83390190565b610af48061009a6000396000f3fe608060405234801561001057600080fd5b50600436106100365760003560e01c80638e952bfe1461003b578063e9e0e49814610156575b600080fd5b6101146004803603604081101561005157600080fd5b81019080803573ffffffffffffffffffffffffffffffffffffffff1690602001909291908035906020019064010000000081111561008e57600080fd5b8201836020820111156100a057600080fd5b803590602001918460018302840111640100000000831117156100c257600080fd5b91908080601f016020809104026020016040519081016040528093929190818152602001838380828437600081840152601f19601f820116905080830192505050505050509192919290505050610273565b604051808273ffffffffffffffffffffffffffffffffffffffff1673ffffffffffffffffffffffffffffffffffffffff16815260200191505060405180910390f35b6102596004803603608081101561016c57600080fd5b81019080803573ffffffffffffffffffffffffffffffffffffffff169060200190929190803573ffffffffffffffffffffffffffffffffffffffff16906020019092919080359060200190929190803590602001906401000000008111156101d357600080fd5b8201836020820111156101e557600080fd5b8035906020019184600183028401116401000000008311171561020757600080fd5b91908080601f016020809104026020016040519081016040528093929190818152602001838380828437600081840152601f19601f820116905080830192505050505050509192919290505050610526565b604051808215151515815260200191505060405180910390f35b6000806000809054906101000a900473ffffffffffffffffffffffffffffffffffffffff1673ffffffffffffffffffffffffffffffffffffffff16639357b0ae85856040518363ffffffff1660e01b8152600401808373ffffffffffffffffffffffffffffffffffffffff1673ffffffffffffffffffffffffffffffffffffffff16815260200180602001828103825283818151815260200191508051906020019080838360005b8381101561033657808201518184015260208101905061031b565b50505050905090810190601f1680156103635780820380516001836020036101000a031916815260200191505b509350505050602060405180830381600087803b15801561038357600080fd5b505af1158015610397573d6000803e3d6000fd5b505050506040513d60208110156103ad57600080fd5b81019080805190602001909291905050509050600073ffffffffffffffffffffffffffffffffffffffff168173ffffffffffffffffffffffffffffffffffffffff16141561051c57600060405161040390610773565b604051809103906000f08015801561041f573d6000803e3d6000fd5b50905080600160008773ffffffffffffffffffffffffffffffffffffffff1673ffffffffffffffffffffffffffffffffffffffff16815260200190815260200160002060006101000a81548173ffffffffffffffffffffffffffffffffffffffff021916908373ffffffffffffffffffffffffffffffffffffffff1602179055503373ffffffffffffffffffffffffffffffffffffffff167f45afe31e3a48a54e27da1d1f2ec6c6e272ce5838616e0d61071b223bceb5c69086604051808273ffffffffffffffffffffffffffffffffffffffff1673ffffffffffffffffffffffffffffffffffffffff16815260200191505060405180910390a2505b8091505092915050565b6000610594600160008773ffffffffffffffffffffffffffffffffffffffff1673ffffffffffffffffffffffffffffffffffffffff16815260200190815260200160002060009054906101000a900473ffffffffffffffffffffffffffffffffffffffff16868686866105a0565b60019050949350505050565b84846105ac82826106ca565b6105b557600080fd5b8673ffffffffffffffffffffffffffffffffffffffff1663d7f31eb98686866040518463ffffffff1660e01b8152600401808473ffffffffffffffffffffffffffffffffffffffff1673ffffffffffffffffffffffffffffffffffffffff16815260200183815260200180602001828103825283818151815260200191508051906020019080838360005b8381101561065b578082015181840152602081019050610640565b50505050905090810190601f1680156106885780820380516001836020036101000a031916815260200191505b50945050505050600060405180830381600087803b1580156106a957600080fd5b505af11580156106bd573d6000803e3d6000fd5b5050505050505050505050565b600080600090508373ffffffffffffffffffffffffffffffffffffffff16600160008573ffffffffffffffffffffffffffffffffffffffff1673ffffffffffffffffffffffffffffffffffffffff16815260200190815260200160002060009054906101000a900473ffffffffffffffffffffffffffffffffffffffff1673ffffffffffffffffffffffffffffffffffffffff16141561076957600190505b8091505092915050565b61033f806107818339019056fe6080604052336000806101000a81548173ffffffffffffffffffffffffffffffffffffffff021916908373ffffffffffffffffffffffffffffffffffffffff1602179055506102ec806100536000396000f3fe60806040526004361061001e5760003560e01c8063d7f31eb91461006e575b3373ffffffffffffffffffffffffffffffffffffffff167f737c69225d647e5994eab1a6c301bf6d9232beb2759ae1e27a8966b4732bc489346040518082815260200191505060405180910390a2005b34801561007a57600080fd5b5061015e6004803603606081101561009157600080fd5b81019080803573ffffffffffffffffffffffffffffffffffffffff16906020019092919080359060200190929190803590602001906401000000008111156100d857600080fd5b8201836020820111156100ea57600080fd5b8035906020019184600183028401116401000000008311171561010c57600080fd5b91908080601f016020809104026020016040519081016040528093929190818152602001838380828437600081840152601f19601f820116905080830192505050505050509192919290505050610160565b005b61016933610246565b61017257600080fd5b61017d83838361029f565b61018657600080fd5b8273ffffffffffffffffffffffffffffffffffffffff167f814d5de04cbc8e9ec4afbdbc8c378599dfcc94c4465668fd1065508e66d3048283836040518083815260200180602001828103825283818151815260200191508051906020019080838360005b838110156102065780820151818401526020810190506101eb565b50505050905090810190601f1680156102335780820380516001836020036101000a031916815260200191505b50935050505060405180910390a2505050565b60008060009054906101000a900473ffffffffffffffffffffffffffffffffffffffff1673ffffffffffffffffffffffffffffffffffffffff168273ffffffffffffffffffffffffffffffffffffffff16149050919050565b600080600083516020850186885af19050939250505056fea265627a7a72315820f0dccc5310b5c56efa90c78bdea84d6732cb26a38b5b6d4e18850b3eb4c7c5e064736f6c63430005100032a265627a7a723158203feb371e0503425ea2d39075cc81d5a48d0baa02f0a6b35fe9e72a032aed330264736f6c634300051000326080604052336000806101000a81548173ffffffffffffffffffffffffffffffffffffffff021916908373ffffffffffffffffffffffffffffffffffffffff160217905550610940806100536000396000f3fe608060405234801561001057600080fd5b50600436106100365760003560e01c80639357b0ae1461003b578063e627dcb614610156575b600080fd5b6101146004803603604081101561005157600080fd5b81019080803573ffffffffffffffffffffffffffffffffffffffff1690602001909291908035906020019064010000000081111561008e57600080fd5b8201836020820111156100a057600080fd5b803590602001918460018302840111640100000000831117156100c257600080fd5b91908080601f016020809104026020016040519081016040528093929190818152602001838380828437600081840152601f19601f820116905080830192505050505050509192919290505050610213565b604051808273ffffffffffffffffffffffffffffffffffffffff1673ffffffffffffffffffffffffffffffffffffffff16815260200191505060405180910390f35b6101986004803603602081101561016c57600080fd5b81019080803573ffffffffffffffffffffffffffffffffffffffff169060200190929190505050610444565b6040518080602001828103825283818151815260200191508051906020019080838360005b838110156101d85780820151818401526020810190506101bd565b50505050905090810190601f1680156102055780820380516001836020036101000a031916815260200191505b509250505060405180910390f35b600061021e3361070c565b61022757600080fd5b6000809050600073ffffffffffffffffffffffffffffffffffffffff1661024d85610765565b73ffffffffffffffffffffffffffffffffffffffff16141561043a5783600160008673ffffffffffffffffffffffffffffffffffffffff1673ffffffffffffffffffffffffffffffffffffffff16815260200190815260200160002060006101000a81548173ffffffffffffffffffffffffffffffffffffffff021916908373ffffffffffffffffffffffffffffffffffffffff1602179055506102ef610812565b60405180604001604052806040518060400160405280601681526020017f527361566572696669636174696f6e4b65793230343800000000000000000000815250815260200185815250905061034361082c565b60405180604001604052806040518060400160405280601c81526020017f68747470733a2f2f7777772e77332e6f72672f6e732f6469642f763100000000815250815260200183815250905080600260008873ffffffffffffffffffffffffffffffffffffffff1673ffffffffffffffffffffffffffffffffffffffff16815260200190815260200160002060008201518160000190805190602001906103eb92919061084c565b50602082015181600101600082015181600001908051906020019061041192919061084c565b50602082015181600101908051906020019061042e92919061084c565b50505090505085925050505b8091505092915050565b606061044f3361070c565b61045857600080fd5b6060604051806020016040528060008152509050600073ffffffffffffffffffffffffffffffffffffffff1661048d84610765565b73ffffffffffffffffffffffffffffffffffffffff1614610703576104b061082c565b600260008573ffffffffffffffffffffffffffffffffffffffff1673ffffffffffffffffffffffffffffffffffffffff168152602001908152602001600020604051806040016040529081600082018054600181600116156101000203166002900480601f0160208091040260200160405190810160405280929190818152602001828054600181600116156101000203166002900480156105935780601f1061056857610100808354040283529160200191610593565b820191906000526020600020905b81548152906001019060200180831161057657829003601f168201915b5050505050815260200160018201604051806040016040529081600082018054600181600116156101000203166002900480601f0160208091040260200160405190810160405280929190818152602001828054600181600116156101000203166002900480156106455780601f1061061a57610100808354040283529160200191610645565b820191906000526020600020905b81548152906001019060200180831161062857829003601f168201915b50505050508152602001600182018054600181600116156101000203166002900480601f0160208091040260200160405190810160405280929190818152602001828054600181600116156101000203166002900480156106e75780601f106106bc576101008083540402835291602001916106e7565b820191906000526020600020905b8154815290600101906020018083116106ca57829003601f168201915b5050505050815250508152505090508060200151602001519150505b80915050919050565b60008060009054906101000a900473ffffffffffffffffffffffffffffffffffffffff1673ffffffffffffffffffffffffffffffffffffffff168273ffffffffffffffffffffffffffffffffffffffff16149050919050565b600080600160008473ffffffffffffffffffffffffffffffffffffffff1673ffffffffffffffffffffffffffffffffffffffff16815260200190815260200160002060009054906101000a900473ffffffffffffffffffffffffffffffffffffffff169050600073ffffffffffffffffffffffffffffffffffffffff168173ffffffffffffffffffffffffffffffffffffffff1614610807578091505061080d565b60009150505b919050565b604051806040016040528060608152602001606081525090565b6040518060400160405280606081526020016108466108cc565b81525090565b828054600181600116156101000203166002900490600052602060002090601f016020900481019282601f1061088d57805160ff19168380011785556108bb565b828001600101855582156108bb579182015b828111156108ba57825182559160200191906001019061089f565b5b5090506108c891906108e6565b5090565b604051806040016040528060608152602001606081525090565b61090891905b808211156109045760008160009055506001016108ec565b5090565b9056fea265627a7a723158207a5bfb423a521aedba0cb8ac530e6124f210d509fe3da9d1b98b0e33e9d198ae64736f6c63430005100032",
  "source": "pragma solidity ^0.5.16;\nimport \"./DidResolver.sol\";\nimport \"./IdentityProxy.sol\";\n\ncontract IdentityController {\n\n    DidResolver resolver = new DidResolver();\n\n    //assigning DID to Proxy address\n    mapping(address => IdentityProxy) idproxies;\n\n    event IdentityCreated(\n        address indexed creator,\n        address owner\n    );\n\n    modifier checkOwned(IdentityProxy proxy, address owner) {\n        require(isOwner(address(proxy), owner));\n        _;\n    }\n\n    function createIdentity(address owner, string memory pubKey) public returns(address) {\n        address registeredID = resolver.registerID(owner, pubKey);\n        //Trying to register user\n        if (registeredID == address(0)){\n            IdentityProxy proxy = new IdentityProxy();\n            idproxies[owner] = proxy;\n            emit IdentityCreated(msg.sender,owner);\n        }\n        \n        return registeredID;\n    }\n\n    function externalTransaction(address owner, address destinationContract, uint value, bytes memory data) public returns(bool) {\n        forwardTo(idproxies[owner], owner, destinationContract, value, data);\n        return true;\n    }\n\n    function forwardTo(IdentityProxy proxy, address owner, address destinationContract, uint value, bytes memory data) internal checkOwned(proxy, owner) {\n        proxy.forward(destinationContract, value, data);\n    }\n\n    function isOwner(address proxy, address owner) private view returns(bool) {\n        bool owned = false;\n        if (address(idproxies[owner]) == proxy){\n            owned = true;\n        }\n        return owned;\n    }\n\n}",
  "sourcePath": "/home/manuel/Documents/DAS-1/identity-manager/contracts/IdentityController.sol",
  "compiler": {
    "name": "solc",
    "version": "0.5.16+commit.9c3226ce.Emscripten.clang"
  },
  "schemaVersion": "3.0.23",
  "updatedAt": "2020-03-03T16:14:34.556Z",
  "networkType": "ethereum",
  "devdoc": {
    "methods": {}
  },
  "userdoc": {
    "methods": {}
  }
}